:020000040800F2
:100000000005002005010008B73700080F3600087A
:10001000B537000821220008713E000800000000EA
:10002000000000000000000000000000013A00088D
:100030002322000800000000B9370008633B0008D5
:100040001F0100081F0100081F0100081F01000810
:100050001F0100081F010008252200081F010008D9
:100060001F0100081F0100081F0100081F010008F0
:100070001F0100081F0100081F0100081F010008E0
:100080001F0100081F0100081F0100081F010008D0
:100090001F0100081F0100081F0100082B22000893
:1000A0001F0100081F0100081F0100081F010008B0
:1000B0001F0100081F0100081F0100081F010008A0
:1000C0001F0100081F0100081F0100081F01000890
:1000D0001F010008653E00081F0100081F010008FD
:1000E0001F0100081F0100081F010008DFF810D0E1
:1000F00000F076FE0048004789470008AFF3008013
:10010000000500200648804706480047FEE7FEE756
:10011000FEE7FEE7FEE7FEE7FEE7FEE7FEE7FEE7B7
:10012000E13B0008ED000008202A04DB203A21FA18
:1001300002F00021704721FA02F3D040C2F1200200
:100140009140084319467047D2B201E000F8012BF4
:10015000491EFBD270470022F6E710B513460A4647
:1001600004461946FFF7F0FF204610BD30B505469E
:100170000020034600E05B1C934205D2EC5CC85CA7
:10018000201A01D1002CF6D130BD00000FB400B50B
:100190008DB010A909900B9000914FF0FF300A909C
:1001A00000200C9005480690054807906A4609A86B
:1001B0000F9900F0CFFB0DB05DF814FB710900083A
:1001C0008F0900082DE9FF5F1D464FF0FF3BD5E981
:1001D000014691465F464FF00008A9697F1C0198CF
:1001E0008847296A824688470028F6D1BAF1FF3F3E
:1001F0000CD024F4C064002E19DD600614D5BAF1C9
:100200002B0F09D0BAF12D0F0ED103E0584604B0E0
:10021000BDE8F09F44F48064A9697F1C0198884779
:10022000761E8246002E02DDBAF1300F03D0B9F1FE
:10023000000F26D032E0A969761E44F400747F1CBA
:10024000019888478246002E05DDBAF1780F06D066
:10025000BAF1580F03D0B9F1000F10D01EE0B9F178
:10026000000F02D0B9F1100F18D1A969761E24F43D
:1002700000747F1C019888478246102002E0082005
:1002800000E00A20814609E008FB0908A969761EFA
:1002900044F400747F1C019888478246002E05DDD7
:1002A0004946504600F041FB0028EDDAE969019823
:1002B0008847A00502D46FF00100A8E7E00725D128
:1002C000600613D5600502D5C8F1000000E0404685
:1002D00029680A1D2A600968220501D5087015E001
:1002E000220701D5088011E008600FE02868011D91
:1002F00029600068210502D580F8008006E021070A
:1003000002D5A0F8008001E0C0F8008038467EE702
:100310002DE9FF4F087883B09946FF2805D0491C86
:100320002D2804D00024002008E000200BE0012448
:10033000F9E700EB800003EB4000491C0B78FF2B32
:10034000F7D104B1404200230293147819461D46A8
:100350002D2C01D02B2C04D1521C2D2C13D0002479
:100360000294AA461478FF2C0FD00A25A3FB057827
:1003700001FB05814FF0000C03FB0C11521CE3192B
:100380004AEB0101EEE70124EAE7814453EA010068
:1003900002D019F5C87F06DA03980021C0E90011E0
:1003A00007B0BDE8F08F0025AE4E2F46DFF8B882CB
:1003B000184600F0BCFCCDE90001B9F1000002DAFA
:1003C000C9F1000400E004460023A74A1AEB030B1E
:1003D00042EB045A12E0E00707D02A46334638467B
:1003E000414600F0C3FB074688462A46334610467E
:1003F000194600F0BBFB05460E466410002CEAD1FE
:10040000DDE90001B9F1000F5A46534606DA00F063
:100410001FFC3A46434600F01BFC05E000F0A6FB3B
:100420003A46434600F0A2FB029A0AB181F000412D
:10043000039AC2E90001B3E72DE9FF4F1F468DB0D3
:10044000D7E901464FF0FF382E2045464FF000090E
:100450000B90B9696D1C0E988847396A82468847A7
:100460000028F6D1BAF1FF3F0AD024F4D064002E60
:1004700011DDBAF12B0F08D0BAF12D0F0BD102E02C
:10048000404611B08DE744F48064B9696D1C0E9844
:1004900088478246761E6946600501D52D2000E01A
:1004A0002B208DF8000001F1010B0DF1200809E06F
:1004B000B9696D1C0E98884782460F9844F4007401
:1004C000761E0560002E02DDBAF1300FF0D00B99D8
:1004D0008A453ED144F0800406E00F99681CA9F1DA
:1004E000010944F400740860B9696D1C761E0E9809
:1004F000884782463028F0D02BE00B998A4505D1F9
:10050000200603D444F08004761E18E0504603F021
:10051000A3FD08B30DF11301761E44F400748B455E
:1005200008D2AAF130000BF8010B200607D5A9F17B
:10053000010003E0200602D409F101008146A00574
:1005400002D50F99681C0860B9696D1C0E98884720
:100550008246002ED1DC53E0002E51DDBAF1650F4A
:1005600002D0BAF1450F4BD1A00549D5B9696D1C30
:1005700024F44074761E0E9888478246002E0CDDC7
:100580002B2804D0BAF12D0F07D144F48074B96937
:100590006D1C0E9888478246761EE00501D52D21F8
:1005A00000E02B2108F8011BCDF82C8021E00DF193
:1005B0002901761E44F4007488450CD2AAF130005B
:1005C00010F0FF0088F8000002D10B99884509D986
:1005D00008F1010806E0E00501D5244801E042F2F7
:1005E0000F708146B9696D1C0E98884782460F9836
:1005F0000560002E04DD504603F02EFD0028D6D104
:10060000F9690E988847FF208BF8000088F80000F1
:100610000020069007904B466A4608A906A8FFF7F7
:1006200077FEA00502D46FF001002AE714F0240F32
:100630000AD0E00714D1DDE906123868031D3B60DB
:100640000068C0E900120BE0DDE9060100F0ACFB38
:100650000146E00704D13868021D3A600068016075
:1006600028460EE7000014400000F03FF1D8FFFFDD
:10067000F0B480EA0102D40F4200B2EB410F02D283
:100680000246084611464A0042D0C30DDDB2C1F30E
:10069000C752AD1A202D35DAC1F3160141F400021C
:1006A00004B15242C5F1200602FA06F12A41104473
:1006B000B3EBD05F23D0C4B1012DA0EBC35009DC54
:1006C000F0BC4FF0004202EAC352DBB200F500007A
:1006D00000F077B9400000F1807000EBC350A0F14A
:1006E000807040EAD170490009E0490841EAC071D0
:1006F000A0EBC35000F50000400800EBC350F0BC75
:1007000000F056B96142012202EB4101001BF6E7FD
:10071000F0BC704781F00041AAE780F00040A7E7F5
:1007200080EA010210B502F00043400022D04A00E6
:100730001FD0010E01EB1261C0F35600C2F3560246
:1007400040F4000042F40002A0FB022000047F39C4
:10075000140400D0401C50EA124001D44000491E4D
:10076000C2B20C0604EBD010401C4008802A02D014
:1007700003E0002010BD20F00100002900DA002075
:10078000184310BD30B480EA010202F0004530F099
:10079000004221F0004013D090B1C30DD40DC2F33C
:1007A0001601C0F31600E41A41F4000140F40002FF
:1007B0007D34914201D3641C00E04900002C02DA30
:1007C00030BC002070474FF400000023914201D359
:1007D000891A034340084FEA4101F7D151B19142D0
:1007E00002D14FF0004105E002D24FF0010101E0DB
:1007F0006FF0010103EBC450284430BC00F0D8B8BE
:10080000C10F80EAE0700844CA079623002100F077
:10081000D8B896230022114600F0D3B800F0004269
:1008200020F00040C10DC0F3160040F400007F2905
:1008300001DA00207047962903DCC1F19601C84017
:1008400001E096398840002AF4D04042704700F019
:10085000004230F000400AD0C10D01F56071C0F3D4
:10086000160042EA0151C2084007114370470020B8
:1008700001467047002801DBC0F10040002901DB80
:10088000C1F1004181427047002801DBC0F1004006
:10089000002901DBC1F100418842704730B50B46A9
:1008A000014600202022012409E021FA02F59D42A0
:1008B00005D303FA02F5491B04FA02F52844151E74
:1008C000A2F10102F1DC30BD2DE9F05F0546002008
:1008D00092469B4688460646814640241BE02846B1
:1008E000414647462246FFF71FFC53465A46C01A68
:1008F000914110D311461846224600F083FA2D1A72
:1009000067EB01084F4622460120002100F07AFAE9
:1009100017EB00094E41201EA4F10104DFDC48461C
:1009200031462A464346BDE8F09F3A2800D2303887
:1009300020F02002412A01D3A2F13700884201D3DE
:100940004FF0FF30704700000268114413780160D7
:1009500018467047D1600449516104491162002171
:100960001161114600F074BA49090008470E0008E9
:10097000426842B1016811F8013B23B1521EC0E93F
:100980000012184670470121C160881E70474268F6
:100990005AB1C368016843B983688B4205D0491EC8
:1009A000521CC0E90012002070474FF0FF30704722
:1009B0000029A8BF7047401C490008BF20F0010073
:1009C000704710B4B0FA80FC00FA0CF050EA010451
:1009D00004BF10BC704749B1CCF1200421FA04F4E3
:1009E00011FA0CF118BF012121430843A3EB0C01BC
:1009F000CB1D4FEA00614FEA102042BF002010BC1F
:100A0000704700EBC35010440029A4BF10BC7047CE
:100A1000401C490008BF20F0010010BC70472DE9C0
:100A2000FE4F804681EA0300C00F0C46009021F083
:100A3000004123F00045B8EB0200A94105D2404631
:100A4000214690461C460B46024623F000401043C8
:100A500047D0270DC7F30A00C3F30A510290401A8A
:100A6000019040286BDAC3F3130040F4801B009818
:100A7000924620B10023D2EB030A63EB0B0B0198E3
:100A80005946C0F14002504600F0BCF906460D46FA
:100A900050465946019A00F0C4F910EB0800614134
:100AA000002487EA115284EAE7731A4340D0009A7F
:100AB00062B3019A012A4FEA075215DC001B61EB71
:100AC00002014FF0004202EA0752CDE90042001C49
:100AD00041F5801132462B4600F061FB03B0BDE8C2
:100AE000F08F40462146F9E7001B61EB0201001C34
:100AF00041F5801300185B412018A2F5001747EB61
:100B0000030140EAD570B6196D4111E06D084FEA56
:100B1000360645EAC0754FEA0752001B61EB020139
:100B2000001C41F5801149084FEA3000001951417D
:100B300032462B4603B0BDE8F04F00F021BB0098D1
:100B4000012240000023D0EB020263EBE073009827
:100B500021464FEAE074B8EB000061EB0401E9E7DD
:100B600083F000435BE781F0004158E72DE9FE4F39
:100B700081EA030404F0004421F0004100944FF0A6
:100B8000000B23F0004350EA01045ED052EA030454
:100B90005BD0C3F30A54C1F30A552C44A4F2F334D6
:100BA0000194A0FB0254C1F3130141F48011C3F37B
:100BB000130343F4801301FB024400FB034E840A39
:100BC000970A44EA815447EA8357A4FB07680295D1
:100BD0008D0A05FB07854FEA932C04FB0C5427056F
:100BE000029D4FEA065847EA1637B5EB08056EEB4B
:100BF000070C870E920E47EA811742EA8312A7FB81
:100C00000201B6EB0B0164EB00042B0D43EA0C333D
:100C10005E1844EB1C50DA465146E7FB0201C5F36F
:100C200013044FEA0B3343EA14534FEA0432019C96
:100C300043EA0603A4F10C040294009CCDE900B43D
:100C400000F0ADFA03B0BDE8F08F00200146F9E7EF
:100C50002DE9F04D81EA030404F0004B21F000453A
:100C600014464FF0000A23F0004150EA050220D05C
:100C700054EA01021DD0C5F30A570246C5F3130317
:100C8000C1F31300C1F30A5640F4801543F48013F6
:100C9000A7EB0608101BD64608F2FD3873EB0500DB
:100CA00002D308F1010801E092185B41B8F1000F8E
:100CB00003DA00200146BDE8F08D00204FF48011DA
:100CC000064684460EE0171B73EB050705D3121B7F
:100CD00063EB050306434CEA010C49084FEA300078
:100CE00092185B4150EA0107EDD152EA030012D09D
:100CF00082EA040083EA0501084305D0101BAB41DA
:100D000006D20122002306E000224FF0004302E059
:100D10006FF0010253101AEB06004CEB085110EB78
:100D20000A0041EB0B01BDE8F04D00F029BA0EB509
:100D300040F2334202920022CDE90022134600F035
:100D40002EFA03B000BDC1F30A52C1F3130140F201
:100D5000FF3341F480119A4202DA002001467047C5
:100D600040F233439A42A2F2334202DC5242FFF78E
:100D7000DBB900F047B8000030B5041E71F1000483
:100D800004DB4FF00044404264EB0101141E73F198
:100D9000000405DB1C464FF00043524263EB0403A2
:100DA000994208BF904230BD01F0004330B421F0B9
:100DB000004150EA010206D00A0DA2F56072C1F3AB
:100DC0001301002A02DC30BC00207047440F44EAC3
:100DD000C104C100E01830BC00EBC250FFF7E8BD11
:100DE000064C074D06E0E06840F0010394E8070078
:100DF00098471034AC42F6D3FFF77CF9EC48000872
:100E00000C490008202A04DB203A00FA02F10020F5
:100E100070479140C2F1200320FA03F31943904038
:100E20007047202A06DBCB17203A41FA02F043EA4A
:100E3000E07306E041FA02F3D040C2F12002914093
:100E4000084319467047C0B24FF4F05100F0F6B9AC
:100E50002DE9F34F8BB04FF0000801F10C000C4668
:100E60004FF0010B46460DF1080A0190626901211D
:100E700001989047051E2DD0252D2CD0216A88473A
:100E8000C0B16269012101989047216A8847002812
:100E9000F7D1411E62690198904700E0761CA16974
:100EA0000B988847216A88470028F7D1E1690B9899
:100EB0008847DBE7A1690B9888470746A84201D11C
:100EC000761CD3E7E1690B9888477F1C02D1B8F103
:100ED000000F6FD047E1002762693D46394601980F
:100EE00090472A2804D16269012101989047012581
:100EF000DFF888926269012101989047A0F13001E2
:100F00000A290AD24F45E5DC07EB870100EB4107D0
:100F1000303FDFD445F01005ECE7E90601D46FF06F
:100F200000476C280AD04C2814D0682815D06A28AD
:100F30000DD074281CD07A281AD01DE062690121D6
:100F4000019890476C2802D045F0040514E045F064
:100F500002050DE045F020050AE0626901210198D3
:100F60009047682802D045F0080505E045F4006583
:100F70006269012101989047C4E9015765283DD075
:100F800019DC58287AD00CDC452837D004DC252819
:100F900026D0412831D131E046282FD047282CD106
:100FA0002CE05B2877D0612828D063287CD0642887
:100FB00023D15AE0D1E06F2848D008DC66281DD044
:100FC00067281BD0692821D06E2816D127E0702809
:100FD00045D0732868D0752847D078280DD14DE0CA
:100FE000A1690B988847054625283FF469AFE16958
:100FF0000B9888476D1C3FF46AAFB4E023466A46FD
:101000006FF001000B99FFF717FA9FE045F04000E1
:101010006060A80723464FF0000236D43EE0E807A0
:101020007FF447AF2068011D21600068290501D5C4
:1010300006701BE7290701D5068017E7A90703D526
:10104000F117C0E9006111E706600FE745F04000C5
:101050006060A80723464FF0080216D41EE040F651
:101060000E0125EA0100606016E045F04000606076
:10107000A80723464FF00A0207D40FE045F04000CE
:101080006060A80708D5234610226FF001000B9975
:10109000AFF300805AE007E0234610226FF0010012
:1010A0000B99FFF78FF851E04FF000094F464B4680
:1010B000632802D05B2807D041E02079C00601D424
:1010C0000120A06001273AE0626901210198904760
:1010D0005E2805D14FF001096269494601989047A1
:1010E000216939B900210A46534643F82120491C99
:1010F0000829FADBB0B3216969B9C11700EBD162E5
:1011000053110AEB830122F01F02821A01200B689F
:10111000904003430B6062690121019890475D286C
:10112000E8D1B9F1000F09D00020514651F8202034
:10113000D24341F82020401C0828F7DB02AB2246AE
:1011400000976FF001000B99AFF3008000280CDAD4
:10115000401C08D1BBF1000F05D04FF0FF300DB09F
:10116000BDE8F08FFFE74046F9E7E90701D108F154
:10117000010806444FF0000B78E60000CCCCCC0C04
:1011800010B5141E73F1000408DA401C41F100018F
:1011900092185B411A4301D120F0010010BD2DE9E6
:1011A000F04D92469B4611B1B1FA81F202E0B0FADD
:1011B00080F220329046FFF725FE04460F4640EAB3
:1011C0000A0041EA0B0153465A46084313D0114620
:1011D00053EA010019D0C8F140025046FEF7A4FFBF
:1011E00005460E46504659464246FFF70BFE084359
:1011F00005D0012004E020463946BDE8F08D0020EE
:10120000054346EAE0762C4337430A986305E40A2F
:10121000A0EB08000022FD0A44EA47540A3002D538
:1012200000200146E9E7010510196941DDE908459B
:1012300000196941BDE8F04DA2E700007F2801D9FF
:10124000002208E0064A02EB5002C007127800D1E3
:10125000120902F00F020120904008407047000080
:10126000AC48000870B501F09DF90E4C05460E48DB
:1012700022784FF40051012AE268A5EB020209D05E
:10128000A3689A4205D3002201F087F9012020705B
:10129000E56070BD63689A42FBD3012201F07DF9DD
:1012A0000020F4E70000002000100140054910B1C3
:1012B000C820486004E04FF47A70486040F6B830C7
:1012C00088607047000000201CB5002201A9114869
:1012D00001F0ADFD002269460E4801F081FD0421B8
:1012E0000C4801F06DFD9DF80220C1B28A4210D079
:1012F00009A002F0BFFD9DF802209DF801109DF8A5
:10130000030002F0F5FB43F2F2220121014801F053
:101310005FFD1CBDA00000200D0A0D0A5B4170702E
:101320005F525443205570646174696E6720424B6C
:10133000503A253032642D3E253032645D0D0A0D61
:101340000A00000070B5404886B0C16941F0805184
:10135000C161C06900F08050009001F0F7F90121EF
:101360003A4801F02DFD43F2F2240025A04220D09E
:1013700037A002F07FFD3D480022016800914068DF
:1013800001906946314801F085FE10B138A002F0A5
:1013900071FD002201A92D4801F01AFE022203214D
:1013A0001A2002F0A5FB22460121284801F010FD79
:1013B00027E037A002F05EFD244801F0C1FE0221C3
:1013C000224801F0FDFCC6B20321204801F0F8FCE0
:1013D000C4B204211D4801F0F3FCC0B204B90124D9
:1013E00000B9012000958DF803608DF801408DF85B
:1013F000020001208DF8000000226946134801F028
:10140000E7FD29A002F036FD0395002203A90F484D
:10141000049501F00CFD002204A90C4801F0E0FC49
:101420009DF80C009DF80E209DF80D108DE807002A
:101430009DF812309DF811209DF8131028A002F09D
:1014400019FD06B070BD000000100240A000002091
:101450000D0A5B4170705F52544320666972737469
:1014600020696E69745D0D0A000000006448000880
:101470000D0A5B4170705F52544320666972737449
:1014800020696E6974206661696C65645D0D0A008F
:101490000D0A5B4170705F525443205761726D209A
:1014A000426F6F745D0D0A005B312E73686F772099
:1014B0007C20322E7365742074696D652048483A2B
:1014C0004D4D3A5353207C20332E73657420646154
:1014D00074652059592D4D4D2D44445D0D0A000071
:1014E0003230253032642D253032642D253032647F
:1014F00020253032643A253032643A253032640D8A
:101500000A00000030B585B00546042242A1FEF76E
:101510002DFE00283FD0082241A12846FEF726FED6
:1015200043F2F224002856D0082240A12846FEF7B4
:101530001DFE00284DD103A8009002AB01AA3EA1D8
:101540002846FEF723FE032843D10198B0F5FA6F31
:1015500002DBA0F5FA6001903C48002269468068F1
:10156000009002988DF8010003988DF80200019810
:101570008DF80300364801F02BFD002829D103988F
:10158000C2B20298C1B20198C0B202F0B1FA31A061
:1015900002F070FC38E0002003900246049003A99A
:1015A0002B4801F044FC002204A9294801F018FC52
:1015B0009DF80C009DF80E209DF80D108DE8070099
:1015C0009DF812309DF811209DF8131027A002F00D
:1015D00051FC05B030BD03A8009002AB01AA2CA1BC
:1015E0002846FEF7D3FD0328F3D101988DF80000BB
:1015F00002988DF8010003988DF8020000226946D8
:10160000134801F047FD28B122460121104801F09E
:10161000DFFBDEE723A0BBE773686F770000000005
:101620007365742074696D65000000007365742033
:101630006461746500000000736574206461746502
:101640002025642D25642D256400000064480008D1
:10165000A00000205B4170705F52544320446174CD
:1016600065205365745D0D0A0D0A00003230253087
:1016700032642D253032642D2530326420253032FD
:10168000643A253032643A253032640D0A00000095
:101690007365742074696D652025643A25643A2564
:1016A000640000005B4170705F5254432054696DC8
:1016B00065205365745D0D0A0D0A00007CB5044673
:1016C0004A48C16941F08051C161C06900F0805051
:1016D000009001F03BF80921454801F071FB4AF206
:1016E000A555444EA8422DD10521414801F068FB83
:1016F00000B2FFF785F8404D2946FFF743F8A06098
:1017000006213B4801F05CFB00B2FFF779F829465F
:10171000FFF738F8E0600721354801F051FB00B2CF
:10172000FFF76EF82946FFF72DF8206108213048B1
:1017300001F046FB00B2FFF763F82946FFF722F8F5
:1017400060611BE02E482D49C4E902102D4820613C
:101750002D486061052002F0E5F90620E16802F0FD
:10176000E1F90720216902F0DDF90820616902F042
:10177000D9F92A4609211E4801F02AFB204600F02B
:10178000C3FAD4E90201FFF77FF804D83146E068D4
:10179000FEF7C0FFA06031466069FEF7BBFF21691C
:1017A000FFF768F804D819496069FEF7B3FF2061B4
:1017B00017A002F05FFB6069FFF749F805460E4687
:1017C0002069FFF744F8CDE9005602460B4616A003
:1017D00002F050FB1AA002F04DFB204600F0E2F9A7
:1017E000BDE87C401FA002F045BB00000010024095
:1017F000A00000200000A0400000C8420000A0415E
:101800000000F04100008C420000AA42000020418C
:101810000D0A5B4170705F534854343020496E6943
:10182000745D0D0A000000005B48756D69252E315E
:101830006625252D252E316625255D0D0A00000023
:101840005B312E7365742068756D695F626F747C9F
:10185000322E7365742068756D695F746F705D0DED
:101860000A0000002D2D2D2D2D2D2D2D2D2D2D2D52
:101870002D2D2D2D2D2D2D2D2D2D2D2D2D2D2D2D98
:101880002D2D2D2D2D2D2D2D2D2D2D2D2D2D2D2D88
:101890002D2D2D2D2D2D2D2D2D2D2D00F8B50E4658
:1018A00004466A4645A13046FEF770FC474D0128C4
:1018B00024D06A4646A13046FEF768FC012838D09D
:1018C0006A4647A13046FEF761FC494D01284DD0DC
:1018D0006A4648A13046FEF759FC012845D1294601
:1018E0002069FEF7C5FE0099FEF7CEFF59D22069A8
:1018F000FEF7ADFF02460B4642A034E02946E06801
:10190000FEF708FF0099FEF7B5FF06D2E068FEF784
:101910009EFF02460B464BA025E000990520A160E2
:1019200002F000F90098FEF792FF02460B4655A020
:1019300019E02946A068FEF79BFE0099FEF7A4FF78
:1019400006D2A068FEF783FF02460B4657A00AE0C6
:1019500000990620E16002F0E5F80098FEF777FFB5
:1019600002460B4661A002F085FAF8BD294660697F
:10197000FEF7D0FE0099FEF77DFF06D26069FEF704
:1019800066FF02460B4663A0EDE700990720216140
:1019900002F0C8F80098FEF75AFF02460B466DA009
:1019A000E1E700990820616102F0BCF80098FEF7B9
:1019B0004EFF02460B4671A0D5E700007365742008
:1019C00074656D705F626F74202566000000A04032
:1019D0007365742074656D705F746F702025660088
:1019E0007365742068756D695F626F742025660089
:1019F000000020417365742068756D695F746F70B5
:101A0000202566005B4170705F5348543430206875
:101A1000756D695F746F70206D75737420626520D9
:101A20003E3D2068756D695F626F74202B203130F8
:101A30002E302028437572723A20252E3266295D99
:101A40000D0A00005B4170705F53485434302074BD
:101A5000656D705F626F74206D75737420626520B0
:101A60003C3D2074656D705F746F70202D20352EA5
:101A7000302028437572723A20252E3266295D0D7A
:101A80000A0000005B4170705F534854343020748A
:101A9000656D705F626F742073657420746F2025AC
:101AA0002E3266E284835D0D0A0000005B41707097
:101AB0005F53485434302074656D705F746F7020CC
:101AC0006D757374206265203E3D2074656D705F96
:101AD000626F74202B20352E302028437572723AA5
:101AE00020252E3266295D0D0A0000005B417070D2
:101AF0005F53485434302074656D705F746F70208C
:101B000073657420746F20252E3266E284835D0D28
:101B10000A0000005B4170705F5348543430206805
:101B2000756D695F626F74206D75737420626520D6
:101B30003C3D2068756D695F746F70202D203130D9
:101B40002E302028437572723A20252E3266295D88
:101B50000D0A00005B4170705F53485434302068B8
:101B6000756D695F626F742073657420746F2025D2
:101B70002E326625255D0D0A000000005B41707065
:101B80005F53485434302068756D695F746F7020FE
:101B900073657420746F20252E326625255D0D0A2D
:101BA000000000007CB5064600F032F820B1BDE828
:101BB0007C4009A002F05EB97068FEF748FE04465A
:101BC0000D463068FEF743FE02460B4609A0CDE9FC
:101BD000004502F04FF97CBD5B4170705F53485483
:101BE00034302052656164204572726F725D0D0A57
:101BF0000000000054656D703A252E3266E2848341
:101C00002048756D693A252E326625250D0A00009B
:101C10007CB5044600F078FA882000F051FA00F014
:101C2000B1FA10B100F08EFA34E0FD2000F048FA6D
:101C300000F0A8FA0028F5D100F084FA0A2000F09C
:101C400085FB00F061FA892000F03AFA00F09AFA78
:101C50000028E7D100256E46012000F0EBF9705511
:101C60006D1C052DF8DB002000F0E4F98DF805006F
:101C700000F068FA0221684601F0A9FE9DF8021002
:101C8000884207D10221F01C01F0A1FE9DF8051049
:101C9000884201D001207CBDBDF80000BDF80310D2
:101CA00040BA4DBAFEF7B5FD114E3146FEF76AFD5A
:101CB0001049FEF735FD1049FEF7DAFC2060284692
:101CC000FEF7A7FD3146FEF75DFD0C49FEF728FD46
:101CD0000B49FEF7CDFC0B496060884201DD616075
:101CE00004E010F1FF4F01D30020606000207CBDB4
:101CF00000FF7F4700002F43000034C20000FA427B
:101D00000000C0C00000C84210B500F0FDF98820F6
:101D100000F0D6F900F036FA20B9942000F0D0F99E
:101D200000F030FA00F00EFABDE810400A2000F092
:101D30000DBB000038B501F0ADFE01F099FE0C4C72
:101D40000A48A06000F02EFCA168401AE06009A0DB
:101D500002F090F815A002F08DF8E0780090A378DA
:101D60006278217816A002F085F838BDC0270900F6
:101D70006C0000202D2D2D2D2D2D2D2D2D2D2D2DBB
:101D80002D2D2D2D2D2D2D2D2D2D2D2D2D2D2D2D83
:101D90002D2D2D2D2D2D2D2D2D2D2D2D2D2D2D2D73
:101DA0002D2D2D2D2D2D2D2D2D2D2D000D0A5B4191
:101DB00070705F53595320496E69745D0D0A0000BD
:101DC0005B414C4C3A256420204C45443A25642024
:101DD0002050554D503A2564202046414E3A256406
:101DE0005D0D0A002DE9FC47674C0646207828B1B6
:101DF00060780127002528B1277104E0BDE8FC4781
:101E000001F036BE2571207908B1012200E00022E0
:101E1000DFF878914FF48051484600F0BEFB009502
:101E2000002269465A48019501F001F8002201A9F3
:101E3000574800F0D5FF9DF800004FF4C04A0A381B
:101E40000B2841D26079DFF84C81012842D0A0797B
:101E500001283FD098F8000001283BD04E48A060F0
:101E600000F0A0FBE168401AA168884248D300F066
:101E700099FBE0603046FFF7CBFE00282DD001F043
:101E8000C1FD46A001F0F6FF98F801004646401C4F
:101E900088F801000120FFF709FA48A001F0EAFFE5
:101EA00000225146484600F078FB6571A5713770F5
:101EB00070780A2865D301F0A5FD48A001F0DAFF8B
:101EC000BDE8FC4700F0BEB96571A571002251461E
:101ED000484651E040F6B830C1E701F093FD706824
:101EE000FEF7B5FCA268009202460B4643A001F043
:101EF000C1FF88F8005088F801500020FFF7D6F99C
:101F0000A078DFF82C8170B131697068FEF7B2FCFF
:101F100001D2677108E041467069FEF7FBFB71680A
:101F2000FEF7A8FC00D26571E07888B1414670697F
:101F3000FEF79EFB7168FEF79DFC01D2A77108E0D9
:101F400041467069FEF7E6FB7168FEF79DFC00D81C
:101F5000A571607908B1012200E000224FF4005120
:101F60004D46484600F019FBA07908B1012200E077
:101F700000224FF48041284602B0BDE8F04700F04F
:101F80000CBBBDE8FC8700006C000020000C014089
:101F9000A000002013000020C02709005B417070E2
:101FA0005F5359532053656E736F7220526561649D
:101FB000204572726F725D0D0A0000000D0A5B41D0
:101FC00070705F53595320456D657267656E637914
:101FD0002053746F705D0D0A000000000D0A5B4114
:101FE00070705F5359532053656E736F7220466152
:101FF000696C6564203330735D0D0A005B4170705D
:102000005F5359532053616D706C65643A48756D28
:10201000693D252E316625252028496E7465727626
:10202000616C3A202575206D73295D0D0A00000052
:102030000000A0402DE9F041204E07460024012277
:102040008021304600F0A9FA0025002240213046C8
:1020500000F0A3FA01F07CFD01224021304600F09F
:102060009CFA6006040E8021304600F089FA08B11F
:10207000641CE4B201F06CFD6D1CEDB2082DE4D3DC
:1020800000224021304600F088FA0FB1002200E023
:1020900001228021304600F080FA01F059FD012232
:1020A0004021304600F079FA01F052FD0022402133
:1020B000304600F072FA2046BDE8F081000C014085
:1020C00070B5104E05460024280601D5012200E017
:1020D00000228021304600F060FA01F039FD012233
:1020E0004021304600F059FA01F032FD0022402133
:1020F000304600F052FA6806641C050EE4B2082C63
:10210000E2D370BD000C014010B50D4C01228021BE
:10211000204600F042FA01224021204600F03DFA1C
:1021200001F016FD00228021204600F036FA01F071
:102130000FFD20460022BDE81040402100F02DBADE
:10214000000C014010B50E4C00228021204600F00A
:1021500024FA00224021204600F01FFA01F0F8FC8A
:1021600001224021204600F018FA01F0F1FC012282
:102170008021204600F011FABDE8104001F0E8BCD3
:10218000000C014070B5134D002401228021284627
:1021900000F003FA01F0DCFC01224021284600F0A7
:1021A000FCF901F0D5FC07E0641CE4B2FA2C03D979
:1021B000FFF7C8FF012070BD8021284600F0E0F93C
:1021C0000028F1D100224021284600F0E6F9002045
:1021D00070BD0000000C014010B540210648FDF71D
:1021E000BAFF06480021017041700122811CBDE840
:1021F0001040034801F080B92C000020100000209E
:10220000B400002010B540210348FDF7A4FF0348A7
:1022100000210170417010BD2C0000201000002032
:10222000FEE77047012000F0AFB810B5202000F0A5
:10223000ABF8402000F0A8F8BDE81040802000F086
:10224000A3B8000072B6074E074C4FF4005529465C
:10225000304600F09AF9002200BF521CA242FBDB7C
:10226000F5E700000010014020A1070010B590F82C
:1022700021100022022905D00421816380F820204A
:10228000012010BD01680B6823F00E030B6001688C
:102290000B6823F001030B6090F84030C46B012100
:1022A00001FA03F3636080F8211080F820201046C3
:1022B00010BD000010B590F821100024022903D0B1
:1022C0000421816301243DE001680A6822F00E02C6
:1022D0000A6001680A6822F001020A601A4A01686D
:1022E000914201D1012121E0174A1432914201D1DA
:1022F00010211BE0144A2832914201D1891515E0C2
:10230000114A3C32914201D189140FE00E4A5032F9
:10231000914202D14FF4803108E00B4A643291427D
:1023200002D14FF4801101E04FF08071064A083A63
:102330005160012180F82110002180F82010416BAC
:1023400001B18847204610BD0800024070B5044620
:1023500000F028F90546601C02D0044800780444C7
:1023600000F020F9401BA042FAD370BD18000020F5
:10237000012805D0202803D0402801D0802801D191
:1023800001F088BB70470000044910B50A6802429A
:1023900002D00860FFF7ECFF10BD000014040140FC
:1023A0002DE9F84FDFF8B8910024A9F1040B23467A
:1023B0000F2709F1040AABF1040EC9E00125A5407D
:1023C0002A40AA427DD1674ED1F804C0ACEB060882
:1023D000B44532D014DCBCF1030F3AD009DCBCF1B7
:1023E000000F2AD0BCF1010F1CD0BCF1020F31D17B
:1023F0001DE0BCF1110F17D0BCF1120F2AD119E06A
:10240000B8F5881F19D006DCB8F5803F15D0B8F5AF
:10241000801F1FD111E0B8F5001F0ED0B8F5041FC2
:1024200018D10AE0CB6815E0CB681B1D12E0CB6821
:1024300008330FE0CB680C330CE08B682BB1012B19
:102440004FF0080303D0456104E0042302E0056176
:1024500000E00023FF2A01D8064601E000F104064F
:102460004FEA840501D9A5F12005D6F8008007FAC6
:1024700005FC28EA0C0803FA05F548EA0508C6F841
:1024800000804D68ED0062D5374DAE6946F001061B
:10249000AE61AD6924F0030605F001050095334DEA
:1024A00006EB050CDCF80850A607360F07FA06F80D
:1024B00025EA0805DFF8B880404503D14FF0000851
:1024C00017E044E0DFF8AC80404502D14FF001084E
:1024D0000FE0DFF8A480404502D14FF0020808E089
:1024E000DFF89880404502D14FF0030801E04FF03B
:1024F000040808FA06F848EA0508CCF808804D6890
:10250000D9F80060ED024D4601D5164300E0964330
:102510002E604D68DAF80060AD02554601D51643CD
:1025200000E096432E604D68DBF80060AD035D4629
:1025300001D5164300E096432E604D68DEF800603A
:10254000ED03754601D5164300E096432E60641CEA
:102550000D682A46E5407FF431AFBDE8F88F0000F2
:10256000080401400000111000100240000001406A
:1025700000080140000C014000100140001401401F
:102580008068084000D001207047C26821EA020339
:102590000A4043EA0241016170470AB10161704794
:1025A0000904FBE70148806870470000180000201C
:1025B00070B5040013D021684CF6CC400860216847
:1025C00045F255500860D4E9000141602168A068D7
:1025D0008860FFF7E7FF054641F23C360DE0012039
:1025E00070BD00BFFFF7DEFF401BB04205D9206879
:1025F000C068800701D0032070BD2068C0688007D4
:10260000F0D121684AF6AA200860002070BD006859
:102610004AF6AA2101600020704700000248816844
:10262000027811448160704718000020074810B5F7
:10263000016841F010010160032000F075F80F20DF
:1026400000F006F800F024F8002010BD0020024041
:1026500070B50D4D04464FF47A712878B1FBF0F057
:102660000A490968B1FBF0F000F087FD48B9102C69
:1026700007D200222146501E00F036F800206C6080
:1026800070BD012070BD0000180000202400002053
:102690000C4808B5816941F001018161816901F04F
:1026A00001010091C16941F08051C161C06900F030
:1026B000805000900448416821F0E06141F00071D1
:1026C000416008BD0010024000000140002809DB05
:1026D00000F01F02012191404009800000F1E0203C
:1026E000C0F8001170470000F0B40E4B1B680C4698
:1026F000C3F30223C3F10705042D00D90425191DD6
:10270000072901D2002300E0DB1E012606FA05F1AD
:10271000491E214099409E40761E16403143F0BC30
:1027200001F0B8BB0CED00E0064900F007020868B4
:102730004FF6FF03184040EA0220034A10430860A6
:10274000704700000CED00E00000FA05014901208F
:102750000862704700000E4210B501460020234C6D
:10276000012922D0022939D010291DD1616822689F
:10277000D20119D51E48C1F38342C903805C0AD532
:1027800061681B4AC1F34041921E515C194AB2FB79
:10279000F1F1484301E0184948436168490203D414
:1027A00040000321B0FBF1F010BD226AC2F3012109
:1027B000012903D1920701D5C80310BD022905D113
:1027C000626A920702D549F6404010BD0329FCD148
:1027D00021688903F9D54FF2244010BD00F02AF991
:1027E0006168C1F38131491C4900DBE700100240F8
:1027F0008448000800127A0000093D002DE9F843E2
:1028000005460078354CC00754D0E0690026C0006A
:1028100008D4E06940F08050E061E069012600F0F2
:10282000805000902E480168C90512D40168804686
:1028300041F480710160FFF7B5FE074605E000BF77
:10284000FFF7B0FEC01B642823D8D8F80000C005ED
:10285000F6D5206A10F4407021D0A98801F44071A7
:1028600081421CD0206A1F49012220F440700A6076
:1028700000220A602062C00711D0FFF793FE0746CE
:1028800041F2883808E000BFFFF78CFEC11B4145CC
:1028900002D90320BDE8F883206A8007F4D5206AB6
:1028A000696820F44070084320621EB1E06920F09E
:1028B0008050E0612878800705D56068A96820F419
:1028C0004040084360602878C00605D56068E96824
:1028D00020F48000084360600020DBE70010024025
:1028E00000700040400442422DE9F0470F460500C9
:1028F00061D0434E306800F00700B84209D230681A
:1029000020F0070038433060306800F00700B8421C
:1029100051D128683B4C810712D5400703D5606828
:1029200040F4E06060602878000703D5606840F4F8
:10293000605060606068A96820F0F0000843606043
:102940002878C00728D06868012810D0216802289C
:1029500010D0890700292EDA616821F003010143B4
:102960006160FFF71FFE804641F288390DE0216863
:102970008903EFE78901EDE7FFF714FEA0EB0801FB
:10298000494502D90320BDE8F0876068696800F016
:102990000C00B0EB810FEFD1306800F00700B842B7
:1029A0000BD9306820F0070038433060306800F001
:1029B0000700B84201D00120E5E72878400705D597
:1029C0006068E96820F4E0600843606028780007E8
:1029D00006D56068296920F4605040EAC100606053
:1029E00000F038F86168084AC1F30311515CC8402F
:1029F0000649086006480068FFF72AFE0020C2E783
:102A000000200240001002409448000824000020EA
:102A10001C0000200448054900684968044AC1F3C5
:102A20000221515CC8407047240000200010024081
:102A3000A44800080448054900684968044AC1F3ED
:102A4000C221515CC84070472400002000100240A1
:102A5000A44800080E4A51680E4801F00C03042BEC
:102A600011D0082B0FD10C48C1F38343C903C05CBC
:102A70000AD55168084AC1F34041921E515C054A8B
:102A80005043B0FBF1F070470449484370470000E1
:102A90000010024000127A007248000800093D0050
:102AA0002DE9F84F040070D02078C04DC00749D000
:102AB0006868C0F38100012807D06868C0F381000E
:102AC000022809D16868C00306D52868800339D573
:102AD00060680028E7D035E06068B0F5803F0BD033
:102AE00010B1B0F5A02F11D0286820F480302860F4
:102AF000286820F4802002E0286840F480302860B4
:102B0000606890B1FFF74EFD06460AE0286840F481
:102B100080202860F0E700BFFFF744FD801B642899
:102B200073D828688003F7D50CE0FFF73BFD064615
:102B300005E000BFFFF736FD801B6428F0D8286849
:102B40008003F7D420789A4E80074FF001094FF0A8
:102B5000000839D5686810F00C0F07D06868C0F31A
:102B60008100022809D16868C00306D4286880075C
:102B700014D52069012808D110E02069B0B1C6F849
:102B80000090FFF70FFD074605E00AE1FFF70AFD99
:102B9000C01B0228C4D828688007F7D52868616957
:102BA00020F0F80040EAC10028600DE0C6F800807F
:102BB000FFF7F8FC074604E0FFF7F4FCC01B02280F
:102BC00023D828688007F7D4207800072CD57948C7
:102BD000A169D9B1C0F80090FFF7E4FC074604E012
:102BE000FFF7E0FCC01B02280FD8686A8007F7D502
:102BF00071484FF4FA510068B0FBF1F0009000BF4B
:102C00000098411E0091FAD20EE080E0C0F80080EA
:102C1000FFF7C8FC074604E0FFF7C4FCC01B02280E
:102C200075D8686A8007F7D42078400760D5E869CE
:102C30000027C00008D4E86940F08050E861E869E6
:102C4000012700F0805000905C480168C90513D44A
:102C50000168834641F480710160FFF7A3FC82465E
:102C600006E000BFFFF79EFCA0EB0A0064284ED8E8
:102C7000DBF80000C005F5D5E06801280AD008B1EE
:102C8000052813D0286A20F001002862286A20F065
:102C9000040002E0286A40F001002862E06841F286
:102CA000883B98B1FFF77EFC82460BE0286A40F033
:102CB00004002862EEE700BFFFF774FCA0EB0A01F6
:102CC00059455AD8286A8007F6D50CE0FFF76AFC08
:102CD000824605E0FFF766FCA0EB0A0159454CD897
:102CE000286A8007F6D41FB1E86920F08050E861B7
:102CF000E06988B36968C1F38101022944D00228E0
:102D0000C6F8608004D0FFF74DFC044638E034E09C
:102D1000FFF748FC074604E0FFF744FCC01B02280D
:102D20002BD828688001F7D4206AB0F5803F05D100
:102D30006868A16820F4003008436860D4E908019D
:102D40000843696821F4741108436860C6F860900C
:102D5000FFF728FC044606E025E000BFFFF722FC51
:102D6000001B022809D828688001F7D51BE000BFA6
:102D7000FFF718FC001B022802D90320BDE8F88FDA
:102D800028688001F4D40EE00128F7D06868226A30
:102D900000F48031914204D1616A00F470108842DD
:102DA00001D00120EAE70020E8E70000001002401F
:102DB0000000424280044242240000200070004093
:102DC000024850F8210080B270470000006C0040BB
:102DD000024800EB810091B201607047006C004036
:102DE000F8B505004FF0000016460C46009006D0DE
:102DF0002CB100226946284600F019F808B10120DC
:102E0000F8BD287B2070E87BE070697B6170A97B4E
:102E1000A17056B100F0DAFCE070607800F0D6FCEA
:102E20006070A07800F0D2FCA0700020F8BD2DE901
:102E3000F04791460C465FEA00084AD084B3D8F8C0
:102E400000004068400744D4404600F05DFD4FF468
:102E500061620546B0FBF2F1B0FBF2F302FB1350E6
:102E60003C23B0FBF3F0B5FBF2F6607002FB1650AA
:102E7000B0FBF3F203FB1200A070182931D3182025
:102E8000B1FBF0F7B1FBF0F200FB121020704046EE
:102E900000F033FD411C04D0A84202D9461B02E0D9
:102EA00017E04FF0FF36A7EB071000EB4000C0EB38
:102EB000001005EBC0152946404600F074FD40B9EE
:102EC000701C01D0711900E03146404600F057FDFA
:102ED00010B10120BDE8F0873946404600F081FC82
:102EE00000E02170B9F1000F0BD0207800F06EFCEB
:102EF0002070607800F06AFC6070A07800F066FCDA
:102F0000A0700020E6E7000070B5040003D0607CEC
:102F1000002610B105E0012070BD2674204600F0A7
:102F20003DF802206074204600F00AF9042550BBE9
:102F3000204600F0ADFC30BB2068416821F007015D
:102F40004160A06820B11448016821F001010160CE
:102F50001148001F0168A26821F4607111430160EB
:102F60006068411C04D10120FFF7F6FB58B1401EF8
:102F70002268C0F303419160216880B2C860204696
:102F800000F0A0FC08B16574C5E7E673012060732A
:102F9000A0736074002070BD306C004008B50068FC
:102FA000084988420DD1FFF7D1FB0748C16941F0BC
:102FB0000061C161C069054900F000600090012016
:102FC000086008BD00280040001002403C04424256
:102FD0002DE9F0410D4604003BD0C5B3207C01280B
:102FE0003AD04FF0010884F8108002206074E8782D
:102FF00072B300F0E2FBE073687800F0DEFB607310
:10300000A87800F0DAFBA073C2B2617BE07B00F02D
:103010008BFC20732870204600F076FC4FF4616131
:10302000B0FBF1F1002518292DD91822B1FBF2F1DE
:10303000A1EB011101EB4101C1EB011100EBC11644
:103040003146204600F0AFFC0427C8B90BE000E091
:1030500004E00120BDE8F0810220FBE7E07368781E
:103060006073A878CFE7204600F047FC411C0AD0E7
:10307000B04208D206490144204600F080FC10B15D
:1030800067742574E5E784F8118025740020E1E772
:10309000805101002DE9F0410D46040024D01DB3FC
:1030A000207C012823D04FF0010884F810800220F2
:1030B00060742878EAB100F080FB4FF4616100FB96
:1030C00001F6687800F079FBC0EB001006EB800693
:1030D000A87800F072FB35182946204600F063FC02
:1030E0000026042710BB0FE00120BDE8F08102207C
:1030F000FBE74FF4616148436978C1EB011100EBD4
:103100008100A9784518E7E72068416821F00501AA
:103110004160204600F0F1FB411C0AD0A84208D2D1
:1031200006490144204600F02AFC10B16774267459
:10313000DAE784F8118026740020D6E78051010078
:1031400070B504000AD02068416821F00801416090
:10315000FFF728FA05464FF47A7608E0012070BDA3
:10316000FFF720FA401BB04201D9032070BD206850
:1031700040680007F4D5002070BD10B5401EB0F1C6
:10318000807F01D3012010BD4FF0E02460610F214A
:10319000601700F07FFE0020A06107202061002062
:1031A00010BD704770470000F8B501680446086814
:1031B000CA684B6910F00F0F4FF0000559D003F0AB
:1031C000010602F49077374365D0C10705D0D105D9
:1031D00003D5616C41F001016164410705D5D90750
:1031E00003D0616C41F002016164810705D5D90704
:1031F00003D0616C41F004016164010707D502F05E
:103200002001314303D0616C41F008016164616CBD
:1032100000293AD0800604D5900602D5204600F059
:103220000FFD20684069616CC0F38010090700D46D
:1032300060B3204600F0DDFC20684069400621D5DF
:103240002068143050E8001F21F0400140E80012CF
:10325000002AF5D1E06BA8B16D494163E06BFFF73F
:1032600029F8002811D0E06B416B01B0BDE8F040B7
:10327000084783060FD593060DD52046BDE8F840D4
:1032800000F0DEBC2046FFF78DFFF8BD2046FFF7BB
:1032900089FF6564F8BD266B2023012E7CD1C6060C
:1032A0007AD5D60678D508684868009048694FF006
:1032B0000206400640D5E16B086840680004000C37
:1032C000E8D0A28D8242E5D9E085886920282DD0FA
:1032D00020680C3050E8001F21F4807140E8001293
:1032E000002AF5D12068143050E8001F21F00101B8
:1032F00040E80012002AF5D12068143050E8001F81
:1033000021F0400140E80012002AF5D184F8423053
:10331000256320680C3050E8001F21F0100140E8C0
:103320000012002AF5D1E06BFEF7A0FF6663A08DC6
:10333000E18D401A81B22AE0A08DE18D401A81B260
:10334000E08D0028A6D00029A4D022680C3252E8D3
:10335000000F20F4907042E80007002FF5D120689C
:10336000143050E8002F22F0010240E80027002F1F
:10337000F5D184F84230256320680C3050E8002FE6
:1033800022F0100240E80023002BF5D166632046AE
:10339000FFF707FFF8BDFFE705062BD5150629D572
:1033A00094F841002128F5D1A068B0F5805F01D1E3
:1033B0002069B0B1206A411C216221680078486010
:1033C000E08C401E0004000CE084E3D12068C1685A
:1033D00021F08001C1602068C16841F04001C160F6
:1033E000D8E7206A0088C0F308004860206A801C83
:1033F0002062E5E74006CDD55006CBD5CA68204609
:1034000022F04002CA6084F8413000F0FFF8C1E7C2
:10341000E33B000870B5040004D094F84100002597
:1034200010B106E0012070BD84F84050204600F045
:1034300023F8242084F841002068C16821F4005159
:10344000C160204600F05EFC2068016921F49041D3
:1034500001612068416921F02A0141612068C16849
:1034600041F40051C1606564202084F8410084F873
:1034700042006563002070BD30B585B00024009423
:103480000194029403940068184988422CD118488A
:10349000816941F480418161816901F48041049135
:1034A000816941F0040181618069124D00F00400DE
:1034B00004904FF4007000900220019003200390CC
:1034C00069462846FEF76CFF2815CDE900046946D9
:1034D00028460294FEF764FF002211462520FFF7DC
:1034E00003F92520FFF7F2F805B030BD00380140A0
:1034F000001002400008014090F84230202B01D01B
:103500000220704721B11AB10023036300F056BCBA
:10351000012070470068114988421DD11049487840
:1035200001280CD008468A780E4B00780A2A0CD065
:103530000D2A0AD03F2802D21A54401C08700849AC
:103540000122891C0848FFF7D7BF00221A5408B18E
:10355000012048700A70F2E770470000003801400F
:10356000100000202C000020B40000202DE9F843BA
:10357000044690F84100984616460D46202802D091
:103580000220BDE8F88385B17EB10020606421206F
:1035900084F84100FFF706F8A6848146E684A06817
:1035A0002027B0F5805F02D003E00120E9E7206921
:1035B00010B12E4600250EE000260CE080212046AA
:1035C00000F017FCA8B9C6B116F8010B21684860D5
:1035D000E08C401EE084E08C4B464FF00002CDF8BA
:1035E00000800028EAD14FF04001204600F001FCA5
:1035F00040B184F841700320C3E735F8020BC0F3F3
:103600000800E3E784F841700020BAE77047FEE75E
:103610002DE9F04385B000253D48009501950295C0
:103620000395816941F010018161816901F0100108
:103630000491816941F020018161816901F02001DB
:103640000491816941F004018161816901F0040103
:103650000491816941F00801816180692D4F00F07A
:1036600008004FF400540490002221463846FEF72B
:1036700094FFDFF8A4904FF4E0480022414648460A
:10368000FEF78BFF0122C0214846FEF786FF00941B
:1036900001AA0124022682E8700069463846FEF736
:1036A0007FFE1E4FE020CDE90007694602941C48CA
:1036B000FEF776FECDE90047694648460294FEF7DC
:1036C0006FFECDF80080CDE9014669464846039675
:1036D000FEF766FEC02000901120CDE90105032011
:1036E000039069464846FEF75BFE00220121062052
:1036F000FEF7FAFF0620FEF7E9FF0022022117205D
:10370000FEF7F2FF1720FEF7E1FF05B0BDE8F083FA
:103710000010024000100140000C01400000311078
:1037200000080140094810B50749016005214160C2
:1037300040F6C4118160FEF73BFF002803D0BDE8CE
:103740001040FEF77FBD10BD003000409400002007
:10375000094810B5074A002102604A1EC0E901214C
:10376000FFF7D2FB002803D0BDE81040FEF76ABD8A
:1037700010BD000000280040A00000200C4810B53B
:103780000A4901604FF4E1314160002181600C225F
:10379000C160C0E904128161C161FFF73BFE0028EE
:1037A00003D0BDE81040FEF74DBD10BD003801400C
:1037B000B4000020FEE7FEE77047010901EB81013C
:1037C00000F00F0000EB4100C0B27047002102E0A2
:1037D0000A38C0B2491C0A28FAD2090740EA116027
:1037E00070472DE9F04104460025C07B627BA37B36
:1037F00042E0012A16D0032A14D0052A12D0072A43
:1038000010D0082A0ED00A2A0CD00C2A0AD0042A7A
:1038100010D0062A0ED0092A0CD00B2A0AD0022A70
:103820000DD028E01F2B0CD30C2A05D10122134602
:10383000401C20E01E2B04D30123521C1BE01C2B38
:1038400002D203F1010316E011D183B29E0710D119
:103850006426B3FBF6F706FB173636B94FF4C87685
:10386000B3FBF6F706FB17331BB91D2303E01D2B33
:1038700001D1032201236D1C8D42BAD3D1B2E07372
:103880006173DAB2A27300F04FF82073BDE8F081E3
:1038900070B50446FEF786FE05464FF47A7606E0DC
:1038A000FEF780FE401BB04201D9032070BD2068A6
:1038B00040688006F4D52068416841F010014160FD
:1038C000002070BD70B504460068416821F0100109
:1038D0004160FEF767FE05464FF47A7607E000BFC9
:1038E000FEF760FE401BB04201D9032070BD206886
:1038F00040688006F4D5002070BD0168086A496AF6
:1039000089B241EA00407047006881698AB2C169A2
:103910008BB2816989B28A4203D0C06961F31F40CA
:10392000704743EA02407047F0B56424C1EBC1031D
:103930000927A500072603EB01130329B3FBF7F1C1
:1039400000F5FA60114401440AD2401EB0FBF4F2C3
:1039500001EB9001B0FBF5F0891A0844001D08E066
:10396000B0FBF4F201EB9001B0FBF5F0891A0844CA
:10397000801CB0FBF6F106FB1100C0B2F0BD70B5C3
:103980000D4606460024FFF783FF48B93168280C2E
:1039900008623168A8B248623046FFF793FF00B171
:1039A0000124204670BD70B50D4606460024FFF781
:1039B0006FFF48B93168280C88613168A8B2C861C6
:1039C0003046FFF77FFF00B10124204670BD70B57F
:1039D0000446FF20002231250FE0A35C584000235D
:1039E000060602D585EA400000E040005B1CDBB221
:1039F000C0B2082BF4D3521CD2B28A42EDD370BDB0
:103A00007047000000B585B0002003900246049086
:103A100003A90D48FFF70BFA002204A90A48FFF793
:103A2000DFF99DF80C009DF80E209DF80D108DE833
:103A300007009DF812309DF811209DF8131003A087
:103A400000F018FA05B000BDA00000200D0A3230C9
:103A5000253032642D253032642D25303264202506
:103A60003032643A253032643A253032640D0A002F
:103A700010B500224FF4E0410448FEF78EFD0448E3
:103A8000002101714171817110BD0000000C0140E5
:103A90006C00002070B501211248FEF771FDC8B11D
:103AA0000020114C2070114D80212846FEF768FD42
:103AB00090B10020607040212846FEF761FD68B19A
:103AC0000020A07020212846FEF75AFD40B10020BA
:103AD000E07070BD0120E4E70120EBE70120F0E792
:103AE0000120F5E7000C01406C00002000080140B7
:103AF00070B516460C460546FEF728FE2A460221FA
:103B00000748FFF765F9224603210548FFF760F9EA
:103B10003246BDE8704004210148FFF759B9000062
:103B2000A000002070B50D460446FEF70FFE0649C2
:103B30002846FCF7F5FDFCF771FE2146BDE8704014
:103B400002B20248FFF744B90000C842A0000020BA
:103B500008B528200090411E009101D30846FAE7DD
:103B600008BDFEF75BBD70B594B028216846FCF730
:103B7000F2FA14210AA8FCF7EEFA00250F950D20A1
:103B800000901095119512954FF4A020CDE90105F4
:103B900005200124CDE90304022620040694CDE982
:103BA00007604FF4E01009906846FEF779FF98B976
:103BB0000F20CDE90A06A002CDE90C5002210AA887
:103BC0000E95FEF791FE38B92002CDE90F400FA8FF
:103BD000FEF714FE002801D0FEF734FB14B070BDD0
:103BE000704710B5406A0021C185C184FFF7DAFA39
:103BF00010BD01680C3151E8002F22F4907241E8A9
:103C00000023002BF5D10168143151E8002F22F078
:103C1000010241E80023002BF5D1016B012909D1F4
:103C200001680C3151E8002F22F0100241E8002316
:103C3000002BF5D1202180F842100021016370474C
:103C400008B590F84210222901D0022008BD8268F0
:103C50004FF480539A4201D1016921B1816A9A429D
:103C60001BD04AB10AE00268816A5268C2F30802B6
:103C70000A80816A891C08E0026972B10268526890
:103C800002F07F020A70816A491C8162C18D491E5F
:103C90000904090CC18503D01BE002685268F1E7F2
:103CA0000168CA6822F02002CA600168CA6822F46A
:103CB0008072CA6001684A6922F001024A612021CB
:103CC00080F8421000214163026B012A03D0FFF704
:103CD00021FC002008BD016301680C3151E8002F70
:103CE00022F0100241E80023002BF5D101680A6898
:103CF000D20602D50A6849680091818DFFF751FA12
:103D0000E7E7000070B5044600680169E26821F445
:103D10004051114301612169A0680843616908436A
:103D20002168CA6841F20C639A430243CA60206862
:103D30004169A26921F44071114341611E49206823
:103D4000884202D1FEF776FE01E0FEF763FE00EB4B
:103D5000C00101EB0012606864218000B2FBF0F347
:103D6000B3FBF1F36FF018067343B2FBF0F5B2FB4F
:103D7000F0F605EB8305322303EB0515B5FBF1F5F2
:103D8000B6FBF1F605F0F00505EB0615B2FBF0F613
:103D9000B2FBF0F0B0FBF1F06FF01802504306EB0D
:103DA000800003EB0010B0FBF1F0216800F00F0081
:103DB0002844886070BD000000380140816282851F
:103DC000C28500214164222180F84210016921B19D
:103DD0000168CA6842F48072CA6001684A6942F0A8
:103DE00001024A610068C16841F02001C160002001
:103DF00070472DE9F843984617460D460446089E3D
:103E000024E0701C22D0FEF7CDFBA0EB0800B042EE
:103E10001AD8CEB12068C168490717D5802D15D0B2
:103E2000402D13D00168C94309070FD4016800254C
:103E3000406800902046FFF7DCFE0820606484F8AC
:103E400040500120BDE8F8830320FBE720680068AC
:103E500035EA000004D00020B842D2D00020F1E7BB
:103E60000120F9E70148FFF79FB90000B4000020E6
:103E7000FEE700000FB4054B10B503A9044A0298F1
:103E800000F0F2F810BC5DF814FB00007147000868
:103E9000280000200907090E002804DB00F1E020BB
:103EA00080F80014704700F00F0000F1E02080F867
:103EB000141D704702E008C8121F08C1002AFAD179
:103EC00070477047002001E001C1121F002AFBD19A
:103ED000704700002DE9FF5F82B00021DDE904306A
:103EE000020DDDF840B0034318D044F61050A2F2A2
:103EF000FF3242431514119801281FD0A5EB0B0087
:103F0000401C5FEA000A4FF000064E4FDFF8389180
:103F1000B046504615D5CAF1000413E011980124AB
:103F20004AA3012801D16FEA0B010298119AC0E956
:103F30000031C0E9024206B0BDE8F09FCBF10000BD
:103F4000DFE704460021404A491842EB0450CDE91E
:103F5000001012E0E00707D032463B464046494693
:103F6000FCF704FE8046894632463B461046194619
:103F7000FCF7FCFD06460F466410002CEAD1DDE993
:103F80000401DDE90023BAF1000F06DAFCF7EEFDCB
:103F900042464B46FCF7EAFD05E0FCF759FE424677
:103FA0004B46FCF755FE04460E460022284BFCF714
:103FB000E3FE03D84FF0FF30014607E00022254B17
:103FC00020463146FCF72BFDFCF7BDFE102409E02E
:103FD000002C0ADB0A220023FCF776FC039B30321C
:103FE0001A55641E50EA0102F2D1641C039AC4F10E
:103FF00011031444119A012A03D0012208430DD160
:104000000AE0084304D000204FF0110B119072E732
:10401000A3EB0B056D1E0DE05B4504DD4FF00002C8
:1040200005F1010504E003DA4FF00002A5F10105F6
:10403000002AECD002981199C0E90231C0E900458C
:1040400079E70000000014400000F03F300000005D
:104050000000F0430000E03F30380A2801D2012080
:1040600070470020704700002DE9FF4F95B09A4639
:10407000884606460025EEE1252877D1002427460C
:10408000F94A0121039400E0044316F8013F203B64
:1040900001FA03F01042F7D130782A2811D06FF0DE
:1040A0002F033078A0F13002092A16D8039A44F081
:1040B000020402EB820203EB42021044761C0390DE
:1040C000EFE758F8042B0392002A03DA504244F435
:1040D0000054039044F00204761C30782E2816D148
:1040E00016F8010F44F004042A280DD06FF02F02B7
:1040F0003078A0F13003092B09D807EB870302EBD6
:104100004303C718761CF3E758F8047B761C307815
:104110006C280FD006DC4C2817D068280DD06A28F0
:1041200014D104E0742810D07A280FD10DE044F4A3
:1041300000140AE044F4801401E044F4401472785E
:10414000824202D104F58014761C761C30786628F1
:104150000BD013DC582877D009DC002875D045280F
:10416000F6D04628F4D047281AD193E118E0632806
:1041700035D0642879D0652812D18BE1702873D0AE
:1041800008DC6728F1D069286FD06E280DD06F2821
:1041900006D1ACE073282CD0752874D0782853D081
:1041A0005246179990476D1C54E1C4F302500228FF
:1041B00009D003280DD0D8F8001004280DD00D60C8
:1041C00008F1040846E1D8F80010EA17C1E90052E6
:1041D000F6E7D8F800100D80F2E70D70F0E718F858
:1041E000041B8DF8001000208DF80100EB46012023
:1041F00003E058F804BB4FF0FF3061074FF00001B7
:1042000002D40DE009F101018946B9420FDA814576
:10421000F8DB1BF809100029F4D108E009F10101CD
:1042200089468142FADB1BF809100029F6D1039870
:104230005346A0EB090721463846179A00F080FA4A
:10424000284400EB090507E044E008E10DE01BF815
:10425000010B524617999047B9F10109F7D253461D
:1042600021463846179AF2E039E00A21C4F3025297
:104270004FF0000B0091022A06D058F8040BC1172A
:10428000032A09D00AE023E008F1070020F0070222
:10429000F2E80201904605E000B2C117042A01D1FC
:1042A00040B2C117002906DA0A460021404261EBFC
:1042B00002012D2202E0220504D52B228DF80420D4
:1042C000012203E0E20701D02022F7E7914657E000
:1042D0000A2100E010214FF0000B00910BE01021AB
:1042E0004FF0000B44F004040827009103E008207D
:1042F0004FF0000B0090C4F30252022A05D058F888
:10430000040B0021032A08D008E008F1070020F080
:104310000702F2E80201904603E080B2042A00D1CD
:10432000C0B24FF0000922072AD53278702A07D090
:10433000DDF800C08CF0100C5CEA0B0C05D00EE030
:1043400040228DF80420012208E050EA010306D043
:1043500030238DF804308DF8052002229146009B11
:1043600083F0080353EA0B030AD150EA010201D19A
:10437000620705D530228DF804204FF001097F1E19
:104380003278582A04D039A20C920CAA02920BE07F
:104390003BA2F9E75B46009AFCF796FA0C9B9B5C04
:1043A000029A521E0292137050EA0102F2D1029850
:1043B00004A9081A00F1200B600702D524F4803408
:1043C00000E001275F4502DDA7EB0B0000E00020C5
:1043D00000EB0B01009003984944401A0390E0035E
:1043E00006D453462146179A039800F0A9F90544CC
:1043F000002706E001A85246C05D179990476D1C42
:104400007F1C4F45F6DBE0030CD553462146179A37
:10441000039800F095F9054404E0302052461799BE
:1044200090476D1C0099481E00900029F5DC08E0BB
:104430000298029952460078491C029117999047B8
:104440006D1CBBF10001ABF1010BF1DC5BE100F095
:1044500065F90544761C307800287FF40DAE19B05C
:104460002846BDE8F08F00000928010030313233C2
:1044700034353637383961626364656600000000A0
:10448000303132333435363738394142434445468A
:1044900000000000600700D4062708F1070020F0A4
:1044A0000700F0E80223804603F0004C5FEA0C00AE
:1044B00001D097A009E0200501D596A005E0E0070E
:1044C00001D095A001E0AFF24C001390307823F0BA
:1044D000004365280CD006DC452809D046281DD0AD
:1044E00047287FD13BE0662818D067287AD136E08C
:1044F0000021112F01DB112000E0781CCDE9000123
:1045000004A90CA8FFF7E6FCDDE90D010C9A4FF0B9
:10451000000B07F10109109200914EE04FF00040AE
:104520000097CDE9011004A90CA8FFF7D3FCDDE941
:104530000D020C9B0F994FF0000B914610930092C7
:1045400011B9791C00EB0109B7EB090003D4C0F1E4
:10455000FF3B07F10109A9EB0700019042E0012FA1
:1045600000DA01270021112F01DD112000E038467B
:10457000CDE9000104A90CA8FFF7ACFCDDE90D01B1
:104580000C9A00914FF0000BB946109221070FD4FE
:10459000009A4A4503DA914601E0A9F10109B9F10F
:1045A000010F05DD109AA9F10101515C3029F4D009
:1045B000B84202DA10F1040F03DA0121CDE901104B
:1045C00010E0002803DC8344A9EB000102E0411C59
:1045D000494500DD8946A0EB0B00401C01904FF0DF
:1045E00000400290200705D40198484502DB4FF0B7
:1045F000FF30019000208DF84B0002980DF14B0721
:10460000B0F1004F25D002200C902B200D90029885
:1046100000280CDA404202902D200D9007E00A217C
:104620000298FCF73BF93031029007F8011D0C9914
:10463000481E0C900029F2DC02980028EFD1791E68
:104640000D980870307800F0200040F0450007F821
:10465000020D11A8C01BC01D02901398007800B174
:10466000012000EB0901019801EBE071029801447F
:104670000398401A401E0390E00306D45346214697
:10468000179A039800F05CF805441398007818B165
:104690005246179990476D1CE00323D55346214697
:1046A000179A039800F04CF805441BE0BBF1000F8B
:1046B00007DB0098584504DD1098179910F80B0097
:1046C00001E0179930205246904701980BF1010BF9
:1046D000401E05F10105019004D12E205246179984
:1046E00090476D1CB9F10001A9F10109DEDC05E07C
:1046F00017F8010B5246179990476D1C0299481EF6
:1047000002900029F4DC53462146179A03989EE64E
:104710002D0000002B000000200000002DE9F041DA
:10472000044600251E461746880404D405E0394691
:104730002020B0476D1C641EF9D52846BDE8F081E5
:104740002DE9F041044600251E469046C80301D5D8
:10475000302700E02027880404D505E0414638468C
:10476000B0476D1C641EF9D52846BDE8F0810000F5
:1047700013B54FF0FF33012269460248FEF7F6FEFB
:1047800000981CBDB400002008B5FDF74FFFFFF7EF
:10479000EAF9FEF73DFFFEF7DBFFFEF7EFFFFEF75E
:1047A000C1FFFDF719FDFDF7C5FAFCF7CBFD194870
:1047B000FCF784FF184C00BFFCF754FD1548FDF7CB
:1047C00011FBFCF781FD207801281ED1134914A0AC
:1047D000FFF750FB1148FCF795FE10490D48FDF717
:1047E0005DF8042212A10D48FBF7C0FC58B9094836
:1047F000FDF7D8F91048C1780091837842780178A4
:104800000EA0FFF737FBFDF7FDFC1548FDF7FFFE97
:10481000D2E700007C000020110000202C000020C6
:104820000D0A0D0A434D443A2025730D0A0000007D
:1048300073686F77000000006C000020414C4C3A18
:10484000256420204C45443A2564202050554D5085
:104850003A2564202046414E3A25640D0A0D0A008F
:10486000940000200C0000000103021A0100000067
:10487000010202030405060708090A0B0C0D0E0FBE
:104880001010010202030405060708090A0B0C0DAB
:104890000E0F1010000000000000000001020304D1
:1048A000060708090000000001020304DDDDDDDD6C
:1048B000DCBBBBDDDDDDDDDDDDDDDDDD98888888B1
:1048C0008888888877777777778888888555555658
:1048D00066666666666666666668888883333332AF
:1048E00022222222222222222228888D0C490008FC
:1048F000000000202C000000B43E000838490008E9
:104900002C000020D4040000C43E00080100000078
:10491000E8030000B80B00000000000000000000E9
:104920000000000001000000100000000000000076
:0849300000127A0000000000F3
:04000005080000ED02
:00000001FF
